:020000040000FA
:060000000A128A110C280F
:10000800FE00030EF1000A08F2000A128A111428F1
:100018000A128A110F28F60183010A128A11CD28C3
:100028008B130B1C182819282A2883120313061867
:100038001E281F2823280130F0007008850786181D
:10004800262827282928013085020B10831203133C
:100058008C1D2F28302882281412141B3428352888
:100068003928941F3828392840281308F0007008C8
:10007800F60014139413141683160313941A4528C0
:1000880046285E28141949284A285E288312031333
:100098001308F0007008F6008C1114168316031369
:1000A800141C572858285228A630F000F00B5A285C
:1000B80000007F28941A612862287F28141D65286B
:1000C80066287F28831203131308F0007008F600CF
:1000D80083160313141083120313050893001416D0
:1000E800A630F000F00B76280000831603131418CE
:1000F8007E287F287928831203138C118B177208A6
:100108008A00710E8300FE0E7E0E0900831603130B
:100118000F178F160F160F148316031789018801FE
:10012800F03083160313850003308600831203130F
:10013800850103308600831603138113033095006D
:100148008B15033096000B108B170B178B150B10A4
:1001580080300A128A11B3200A128A110800F300AB
:100168007308831603139300363083120313940025
:100178008030831603139400013091008715071609
:100188008B170B17831203138C11831603138C150B
:1001980008000A128A118A200A128A111A30F500F8
:1001A800F830F400F40BD628F50BD6280000D22836
:0601B8000A128A110C2856
:04400E00C420FF3F8C
:00000001FF
