:020000040000FA
:060000000A128A110C280F
:10000800FE00030EF0000A08F1000A128A15512EAC
:100018000A128A110F2883120313CE01CF01D001CF
:10002800D101D201D301D401D50183010A128A1169
:100038007E2B8312031329088039AE002E08B300E3
:100048002908AE002E07AF002F08B900A81F2D28D9
:100058002E282F283914390803193328342843281F
:10006800390A031D3828392841280030A9000030F2
:10007800A8000030A7000030A600A8174B280030C1
:10008800A9000030A8000030A7000030A6002D0805
:100098008039AE002E08B3062D08AE002E07AF003B
:1000A8002F08B800AC1F59285A285B28381438087C
:1000B80003195F2860286F28380A031D64286528FB
:1000C8006D280030AD000030AC000030AB000030CF
:1000D800AA00AC1777280030AD000030AC00003023
:1000E800AB000030AA00380803197B287C28812837
:1000F8003908031D802881288A280030A90000308B
:10010800A8000030A7000030A6007D2B2608AE000E
:100118002E08F2002C080A128A1507270A128A11DB
:10012800730883120313BF007208BE003E08AE00B6
:10013800AF01B001B1013108B7003008B6002F088F
:10014800B5002E08B4003F08AE00AF01B001B10100
:100158003108BD003008BC002F08BB002E08BA00CB
:100168002708AE002E08F2002B080A128A15072766
:100178000A128A11730883120313BF007208BE00A3
:100188003E08AE00AF01B001B1012E08B4072F0838
:1001980003110318013E0319D228B50730080311CB
:1001A8000318013E0319D928B607310803110318AB
:1001B800013E0319E028B7073F08AE00AF01B001C0
:1001C800B1012E08BA072F0803110318013E0319BD
:1001D800EE28BB07300803110318013E0319F52860
:1001E800BC07310803110318013E0319FC28BD0799
:1001F8002808AE002E08F2002A080A128A150727D6
:100208000A128A11730883120313BF007208BE0012
:100218003E08AE00AF01B001B1012E08B4072F08A7
:1002280003110318013E03191A29B50730080311F1
:100238000318013E03192129B607310803110318D1
:10024800013E03192829B7073F08AE00AF01B001E6
:10025800B1012E08BA072F0803110318013E03192C
:100268003629BB07300803110318013E03193D293D
:10027800BC07310803110318013E03194429BD07BF
:100288000830AE000310B40DB50DB60DB70DAE0BAA
:1002980046292708AE002E08F2002A080A128A15F5
:1002A80007270A128A11730883120313BF00720802
:1002B800BE003E08AE003F08AF00B001B1012E08F5
:1002C800B4072F0803110318013E03196C29B50759
:1002D800300803110318013E03197329B6073108C2
:1002E80003110318013E03197A29B7072608AE003F
:1002F8002E08F2002B080A128A1507270A128A11FB
:10030800730883120313BF007208BE003E08AE00D4
:100318003F08AF00B001B1012E08B4072F08031140
:100328000318013E03199929B5073008031103186A
:10033800013E0319A029B607310803110318013E2D
:100348000319A729B7070830AE000310B40DB50D7F
:10035800B60DB70DAE0BA9292608AE002E08F2007F
:100368002A080A128A1507270A128A1173088312A3
:100378000313BF007208BE003E08AE003F08AF007E
:10038800B001B1012E08B4072F0803110318013E6C
:100398000319CF29B507300803110318013E0319C3
:1003A800D629B607310803110318013E0319DD29C0
:1003B800B7072708AE002E08F2002C080A128A1583
:1003C80007270A128A11730883120313BF007208E1
:1003D800BE003E08AE003F08AF00B001B1012E08D4
:1003E800BA072F0803110318013E0319FC29BB079C
:1003F800300803110318013E0319032ABC0731080A
:1004080003110318013E03190A2ABD072808AE0084
:100418002E08F2002B080A128A1507270A128A11D9
:10042800730883120313BF007208BE003E08AE00B3
:100438003F08AF00B001B1012E08BA072F08031119
:100448000318013E0319292ABB07300803110318B2
:10045800013E0319302ABC07310803110318013E75
:100468000319372ABD072808AE002E08F2002C0809
:100478000A128A1507270A128A11730883120313AE
:10048800BF007208BE003E08AE003F08AF00B001D2
:10049800B10108300310AE0DAF0DB00DB10DFF3E28
:1004A800031D4E2A2E08BA072F0803110318013E10
:1004B80003195F2ABB07300803110318013E03190B
:1004C800662ABC07310803110318013E03196D2A77
:1004D800BD073408AE003508AF003608B00037084D
:1004E800B10018300310B10CB00CAF0CAE0CFF3ECD
:1004F800031D762A2E08BA072F0803110318013E98
:100508000319872ABB07300803110318013E031992
:100518008E2ABC07310803110318013E0319952AD6
:10052800BD070830AE000310B40DB50DB60DB70DFC
:10053800AE0B972A39083807AE00AF01AF0D2E0869
:10054800823EBE002F080318013EFF3EBF00C92AA5
:100558000130AE000310BA0DBB0DBC0DBD0DAE0BC6
:10056800AE2AB71FB82AB92ABA2A3A140130AE00FF
:100578000310B40DB50DB60DB70DAE0BBC2AFF3088
:10058800BE070318BF0AFF30BF07BC1FCC2ACD2AFD
:10059800AC2AB801B71FD12AD22AEE2AFF30340577
:1005A800AE00FF303505AF00FF303605B0007F30B4
:1005B8003705B100310830042F042E040319E52A49
:1005C800E62AE92AB801B80AEE2A3A1CEC2AED2AEA
:1005D800EE2AE62A38080319F22AF32A242B0130D6
:1005E800BA07003003180130BB0700300318013088
:1005F800BC07003003180130BD073D1C042B052B38
:10060800242B3A08AE003B08AF003C08B0003D0878
:10061800B1000130B200310DB10CB00CAF0CAE0C12
:10062800B20B0F2B3108BD003008BC002F08BB00EF
:100638002E08BA000130BE070318BF0A0030BF07F2
:100648003F08803AFF0080307F02031D2D2BFF30CA
:100658003E02031C302B312B3C2B7F3083120313BB
:10066800BD008030BC000030BB000030BA00712BE8
:10067800831203133F08803AFF0080307F02031D76
:10068800472B01303E0203184A2B4B2B572B0030C7
:1006980083120313BD000030BC000030BB000030E3
:1006A800BA00B301712B831203133E08AE002E0863
:1006B800B900FF30BA05FF30BB057F30BC050030FC
:1006C800BD05391C682B692B6A2BBC173908AE008D
:1006D80003102E0CAF002F08BD003308AE002E0803
:1006E800BD043D08A9003C08A8003B08A7003A083B
:1006F800A60008000A128A152E270A128A110A1261
:100708008A11AF270A128A110A128A1579260A1243
:100718008A11F601F60A01300A128A1157270A12BD
:100728008A1101300A128A15E2260A128A110A125F
:100738008A155A260A128A117130F2000030F30025
:100748000A128A11F6270A128A110030F200F30001
:100758000A128A1556270A128A117308831203137C
:10076800D1007208D0000A128A1563260A128A116B
:10077800033083120313CD000830CC007630CB0051
:10078800CB0BC42BCC0BC42BCD0BC42B00000A12F3
:100798008A155A260A128A118130F2000030F300B5
:1007A8000A128A11F6270A128A110030F200F300A1
:1007B8000A128A1556270A128A117208831203131D
:1007C800CB004B08D2000A128A1563260A128A1136
:1007D800033083120313CD000830CC007630CB00F1
:1007E800CB0BF42BCC0BF42BCD0BF42B00000A1203
:1007F8008A155A260A128A119030F2000030F30046
:100808000A128A11F6270A128A11EE30F200003015
:10081800F3000A128A11F6270A128A110A128A1597
:1008280063260A128A11033083120313CD0008309D
:10083800CC007630CB00CB0B1F2CCC0B1F2CCD0B58
:100848001F2C00000A128A155A260A128A119030A3
:10085800F2000030F3000A128A11F6270A128A11F0
:10086800AA30F2000030F3000A128A11F6270A12A1
:100878008A110A128A1563260A128A110330831212
:100888000313CD000830CC007630CB00CB0B4A2CBC
:10089800CC0B4A2CCD0B4A2C00000A128A155A267A
:1008A8000A128A119130F2000030F3000A128A11FC
:1008B800F6270A128A110030F200F3000A128A158C
:1008C80056270A128A11730883120313CF0072087D
:1008D800CE000A128A1563260A128A11033083127F
:1008E8000313CD000830CC007630CB00CB0B7A2C2C
:1008F800CC0B7A2CCD0B7A2C0000831203135008F2
:10090800F2005108F300F401F50100300A128A11CF
:1009180043250A128A11750883120313AD0074085F
:10092800AC007308AB007208AA003F30A900FB3086
:10093800A8000230A7000C30A6000A128A111D2058
:100948000A128A11831203132908C3002808C20057
:100958002708C1002608C0000A128A11FF250A12BA
:100968008A11831203134108D1004008D0005108AE
:10097800FB005008FA000A128A117B260A128A1113
:10098800F601F60A02300A128A1157270A128A114A
:100998008312031355080A128A15A0260A128A110F
:1009A8002E300A128A15A0260A128A1183120313FE
:1009B80054080A128A15A0260A128A1183120313F0
:1009C80053080A128A15A0260A128A1112300A122E
:1009D8008A15E2260A128A11831203135208CB00E1
:1009E800CC014B08FA004C08FB000A128A117B263E
:1009F8000A128A118312031355080A128A15A026AF
:100A08000A128A118312031354080A128A15A0269F
:100A18000A128A118312031353080A128A15A02690
:100A28000A128A1112300A128A15E2260A128A114B
:100A3800831203134F08FB004E08FA000A128A11AA
:100A48007B260A128A118312031355080A128A1583
:100A5800A0260A128A118312031354080A128A154F
:100A6800A0260A128A118312031353080A128A1540
:100A7800A0260A128A119B2B0A128A110C288312AB
:100A88000313A000200803194A2D4B2D5F2DF51FD5
:100A98004E2D4F2D5F2D7209A2007309A300740912
:100AA800A4007509A500A20A0319A30A0319A40A38
:100AB8000319A50A672D7508A5007408A400730812
:100AC800A3007208A2007508740473047204031D5D
:100AD8006E2D6F2D782D0030F5000030F4000030B9
:100AE800F3000030F200FE2D9630F6007608A100E3
:100AF8008A2D0130F6007608A10701300310A50CF5
:100B0800A40CA30CA20CFF3E031D822DFE3025056C
:100B1800031D8F2D902D7D2DAC2D0130F60076080C
:100B2800A1070130A207003003180130A3070030E5
:100B380003180130A407003003180130A50701305D
:100B48000310A50CA40CA30CA20CFF3E031DA42D9E
:100B5800FF302505031DB12DB22D912DBE2D01307D
:100B6800A1020130F6000310A20DA30DA40DA50DDE
:100B7800F60BB72DA41BC12DC22DC82D02302102A2
:100B88000318C72DC82DB32D2118CB2DCC2DD42D4E
:100B9800FF30A205FF30A3057F30A405FF30A5056F
:100BA8000310A10C2108F600F701F801F90118302B
:100BB8000310F60DF70DF80DF90DFF3E031DDC2DA2
:100BC8007608A2047708A3047808A4047908A50481
:100BD80020080319F02DF12DF62DF51FF42DF52D14
:100BE800F62DA5172508F5002408F4002308F300BE
:100BF8002208F2000800031083120313420D430D6C
:100C0800C4004408CA004A08031D0B2E0C2E152EDA
:100C18000030C3000030C2000030C1000030C00006
:100C28007A2E4008C4004108C5004208C60043089F
:100C3800C7001F300310C70CC60CC50CC40CFF3E00
:100C4800031D1E2E4408C8004808C900C217FF30FB
:100C5800C005FF30C105FF30C2050030C30596301E
:100C6800CA02CA1F382E392E532E4A08803A973E98
:100C780003183F2E402E412E0C2E01300310C30CBA
:100C8800C20CC10CC00CFF3E031D422E0130C40033
:100C98004408CA07031D512E522E412E6A2E2030B9
:100CA8004A02031C582E592E652E0C2E0130C40002
:100CB8000310C00DC10DC20DC30DC40B5C2E013055
:100CC800CA024A08031D692E6A2E5A2E49080319BA
:100CD8006E2E6F2E7A2EC009C109C209C309C00A37
:100CE8000319C10A0319C20A0319C30A08007B08B9
:100CF80083120313A3007A08A2006430F2000030C4
:100D0800F3002308F5002208F4000A128A15BC270C
:100D18000A128A11720883120313A0002008D50052
:100D28005508A000A1012008F2002108F3009C301A
:100D3800F400FF30F5000A128A15BD260A128A113E
:100D48008312031322087207A20023080318230A38
:100D58007307A3000A30F2000030F3002308F500FF
:100D68002208F4000A128A15BC270A128A1172088E
:100D780083120313A0002008D4005408A000A10186
:100D88002008F2002108F300F630F400FF30F500E7
:100D98000A128A15BD260A128A1183120313220821
:100DA8007207A20023080318230A7307A300220866
:100DB800A0002008D3005508303EA0002008D50028
:100DC8005408303EA0002008D4005308303EA0004C
:100DD8002008D3000800003083120313A30000305A
:100DE800A2000030A1000030A0007508740473044C
:100DF80072040319002F012F4E2FA401A40A112FEA
:100E08000130FA000310F20DF30DF40DF50DFA0B95
:100E1800062F0130FA007A08A407F51F142F152FA2
:100E2800042F0130FA000310A00DA10DA20DA30D8F
:100E3800FA0B172F75087902031D2C2F74087802F6
:100E4800031D2C2F73087702031D2C2F72087602BE
:100E5800031C2F2F302F3F2F7208F6027308031C34
:100E6800730FF7027408031C740FF8027508031C4B
:100E7800750FF902201401300310F50CF40CF30C73
:100E8800F20CFF3E031D402F0130A402031D4D2F1D
:100E98004E2F152F2308F5002208F4002108F3002F
:100EA8002008F200080083120313A0002003031D8A
:100EB8005E2F5F2F842F76087F3EF7007708A30008
:100EC8002308F70004300310F70CFF3E031D672FBB
:100ED8007708F8007808A10023080F39F700770889
:100EE800A20021080A128A1586260A128A1183127C
:100EF800031322080A128A1586260A128A11AE2FAF
:100F080002302006031D892F8A2FAE2F7608BF3E98
:100F1800F7007708A3002308F70004300310F70C44
:100F2800FF3E031D922F7708F8007808A1002308D8
:100F3800F039F7007708A20021080A128A158626D8
:100F48000A128A118312031322080A128A158626A6
:100F58000A128A11080000300A128A154B260A1252
:100F68008A111A30F700F830F600F60BB92FF70B94
:100F7800B92F000030300A128A1586260A128A1103
:100F88000730F7007D30F600F60BC82FF70BC82F97
:100F980030300A128A1586260A128A114230F60063
:100FA800F60BD42F000030300A128A1586260A1252
:100FB8008A113C300A128A1586260A128A110830CC
:100FC8000A128A1586260A128A1101300A128A150F
:100FD80086260A128A1106300A128A1586260A12ED
:100FE8008A1108000A128A156C260A128A117208D8
:100FF800831203139300080008308A000408840A47
:10100800820700342034533431343A3420342034C5
:101018002034533432343A34203420342034533496
:0C10280033343A340034203420340034D7
:101C9600F200720883120313880008008B138B1757
:101CA60071088A00700E8300FE0E7E0E09000A126D
:101CB6008A156C260A128A15831603131114080056
:101CC6000A128A156C260A128A1583160313111531
:101CD6000800831603131419712E722E6C2E110828
:101CE6001F39031D772E782E6C2E080000300A123D
:101CF6008A1586260A128A1501300A128A15862640
:101D06000A128A150800F5008312031309107508D4
:101D16000A128A154B260A128A158312031389148E
:101D26000630F4003030F300F30B972EF40B972EA9
:101D360000008312031389100800F4007408F300EE
:101D46007308F5007508F3007308F6008312031391
:101D5600091476080A128A154B260A128A15831266
:101D6600031389140D30F300F30BB72E83120313FC
:101D760089100800F601F701721CC22EC32EC92E67
:101D86007408F6070318F70A7508F70701300310F9
:101D9600F40DF50DFF3E031DCA2E01300310F30CA2
:101DA600F20CFF3E031DD12E72087304031DDC2EB8
:101DB600DD2EBF2E7708F3007608F2000800F90042
:101DC600F701F801F92E7708790784000A128A15B7
:101DD60000200A128A150A128A15A0260A128A15E6
:101DE6000130F7070318F80A0030F8077708790773
:101DF60084000A128A1500200A128A15003A031D69
:101E0600052F062FE62E0800FA00F601F7017208E4
:101E1600F400F5017408F8007508F9007A1C142F0F
:101E2600152F1B2F7808F6070318F70A7908F70706
:101E360001300310F80DF90DFF3E031D1C2F031092
:101E4600FA0C7A08031D282F292F112F7708F30083
:101E56007608F2000800831603130F178F160F1665
:101E66000F1483160317890188018316031385014E
:101E76008601870188018901831203138501860182
:101E86008701880189018B130B130030A8000130EC
:101E9600A7008630A600A030A5000A128A1584275E
:101EA6000A128A1508000A128A156C260A128A1561
:101EB6008316031391150A128A156C260A128A15BF
:101EC600831203131308F400F5017408F60075086D
:101ED600F7000A128A156C260A128A157203730411
:101EE600031D762F772F7B2F8316031391127E2FD8
:101EF60083160313911611167708F3007608F2007D
:101F060008002830831203139400831603139101EB
:101F1600831203132508A9002608AA002708AB0088
:101F26002808AC0002300310A90DAA0DAB0DAC0DAC
:101F3600FF3E031D962F2C08F5002B08F4002A08F7
:101F4600F3002908F2000030F9007A30F800123068
:101F5600F7000030F6000A128A11EF260A128A15D7
:101F66007208FF3E83160313930094018715071624
:101F76000800F701F801720873040319C32FC42F70
:101F8600FB2FF901F90AD22F01300310F20DF30DE0
:101F9600FF3E031DC82F0130F6007608F907F31F30
:101FA600D52FD62FC72F01300310F70DF80DFF3EA2
:101FB600031DD72F73087502031DE32F72087402E1
:101FC600031CE62FE72FEE2F7208F4027308031C9A
:101FD600F503F502771401300310F30CF20CFF3E03
:101FE600031DEF2F0130F902031DFA2FFB2FD62F09
:0A1FF6007808F3007708F2000800F5
:04400E00C420FF3F8C
:00000001FF
