:020000040000FA
:060000000A128A110C280F
:10000800FE00030EF1000A08F2000A128A111528F0
:100018000A128A110F28F501F60183010A128A11C2
:10002800DA288B13831203130C1F1B281C2829287A
:100038001E08F0007008F6000C132730F000F00BD3
:1000480023282628831203139F148C1D2C282D285F
:100058007F281412141B312832283628941F35287B
:1000680036283D281308F0007008F500141394137F
:10007800141683160313941A422843285B2814196C
:10008800462847285B28831203131308F0007008DA
:10009800F5008C11141683160313141C54285528C4
:1000A8004F28A630F000F00B572800007C28941A3F
:1000B8005E285F287C28141D622863287C28831208
:1000C80003131308F0007008F500831603131410C7
:1000D80076088312031393001416A630F000F00B71
:1000E800732800008316031314187B287C287628AD
:1000F800831203138C118B1772088A00710E830008
:10010800FE0E7E0E0900831603130F178F160F16A7
:100118000F148316031789010130880001308316F4
:10012800031385008601083087008801890183123E
:10013800031385018601870188018901831603134A
:100148009F131F129F12831203131F083F39803811
:100158009F00C3309F051F142130F400F40BB22810
:10016800831203139F148B170B1770300A128A110E
:10017800C0200A128A110800F300730883160313BB
:1001880093003630831203139400803083160313D0
:10019800940001309100871507168B170B178312EF
:1001A80003138C11831603138C1508000A128A1185
:1001B80087200A128A11831203139F14E2280A1255
:0401C8008A110C2864
:04400E00C420FF3F8C
:00000001FF
